:020000040800F2
:100000000028002081150008DD140008E314000812
:10001000E9140008EF140008F514000800000000BF
:10002000000000000000000000000000FB140008B9
:100030000715000800000000131500081F15000830
:10004000C9150008C9150008C9150008C915000818
:10005000C9150008C9150008C9150008C915000808
:10006000C9150008C9150008C9150008C9150008F8
:10007000C9150008C9150008C9150008C9150008E8
:10008000C9150008C9150008C9150008C9150008D8
:10009000C9150008C9150008C9150008C9150008C8
:1000A000C9150008C9150008C9150008C9150008B8
:1000B0002D150008C915000800000000C91500082A
:1000C000C91500080000000000000000C915000864
:1000D00000000000C9150008C91500080000000054
:1000E000C9150008C9150008C9150008000000005E
:1000F0000000000000000000000000000000000000
:0C01000000000000000000005FF808F1A3
:10010C0010B5054C237833B9044B13B10448AFF345
:10011C0000800123237010BDFC00002000000000B3
:10012C00F82B000808B5034B1BB103490348AFF388
:10013C00008008BD0000000000010020F82B000822
:10014C0080B584B000AFF860B9601346FB800F4AED
:10015C00FB6852F823200E49FB6841F823200D4A16
:10016C00FB6852F823200949FB6841F82320FB88DF
:10017C001946B86801F00EFD03461946054AFB689E
:10018C0042F8231000BF1037BD4680BD5000002040
:10019C00280000207800002080B483B000AF786085
:1001AC00094A7B6852F82330012B06D1064A7B683A
:1001BC00002142F82310012300E0002318460C37DD
:1001CC00BD4680BC704700BF3001002080B582B0B6
:1001DC0000AF4FF400524D490020FFF7B1FF4FF430
:1001EC0080424A490120FFF7ABFF4FF400424749D8
:1001FC000220FFF7A5FF03233B600023FB717BE08C
:10020C00FB79434A52F82320FB79424951F82330B9
:10021C009A4262D1FB793F4A52F82320FB793E493E
:10022C0051F823309A4258D1FB793C4A52F823209A
:10023C00FB79394951F823309A421DD0FA79FB7970
:10024C00354951F82220354941F82320FB79324AAF
:10025C0052F82330002B4BD1FB79314A012142F863
:10026C002310FB792F4A002142F82310FB792E4AE8
:10027C00C82142F823103BE0FB79274A52F823307F
:10028C00002B35D1FB79284A52F82330002B08DD9E
:10029C00FB79254A52F82320013A234941F82320BF
:1002AC0026E0FB79204A52F82330002B20D1FB7931
:1002BC001C4A52F82330002B1AD1FB79194A012120
:1002CC0042F82310FB79164A012142F82310FB79DE
:1002DC00154A322142F823100AE0FB79104A00211A
:1002EC0042F82310FB790F4A002142F8231000E05A
:1002FC0000BFFB790133FB71FB793A689A423FF7F7
:10030C007FAF00BF00BF0837BD4680BD000801406D
:10031C00280000205000002078000020A0000020C1
:10032C003001002080010020C800002080B582B080
:10033C0000AF78607B68002B22D100220121BD48E0
:10034C0001F03FFC00220221BA4801F03AFC0022E5
:10035C000421B84801F035FC00220821B54801F011
:10036C0030FC00221021B34801F02BFC002220218C
:10037C00B04801F026FC01224021AE4801F021FCDE
:10038C007B68012B22D101220121AA4801F019FC22
:10039C0000220221A74801F014FC00220421A548E8
:1003AC0001F00FFC01220821A24801F00AFC0122F5
:1003BC001021A04801F005FC012220219D4801F0EC
:1003CC0000FC012240219B4801F0FBFB7B68022BC7
:1003DC0022D100220121974801F0F3FB00220221D7
:1003EC00944801F0EEFB01220421924801F0E9FB54
:1003FC00002208218F4801F0E4FB002210218D48D7
:10040C0001F0DFFB012220218A4801F0DAFB0022F7
:10041C004021884801F0D5FB7B68032B22D10022B8
:10042C000121844801F0CDFB00220221814801F01A
:10043C00C8FB002204217F4801F0C3FB00220821E5
:10044C007C4801F0BEFB012210217A4801F0B9FB77
:10045C0001222021774801F0B4FB0022402175488D
:10046C0001F0AFFB7B68042B22D1012201217148E2
:10047C0001F0A7FB002202216E4801F0A2FB002232
:10048C0004216C4801F09DFB01220821694801F010
:10049C0098FB01221021674801F093FB00222021D8
:1004AC00644801F08EFB00224021624801F089FB78
:1004BC007B68052B22D1002201215E4801F081FBD3
:1004CC00012202215B4801F07CFB002204215948E7
:1004DC0001F077FB00220821564801F072FB012243
:1004EC001021544801F06DFB00222021514801F0ED
:1004FC0068FB002240214F4801F063FB7B68062B10
:10050C0022D1002201214B4801F05BFB0122022188
:10051C00484801F056FB00220421464801F051FBEB
:10052C0000220821434801F04CFB002210214148D5
:10053C0001F047FB002220213E4801F042FB002243
:10054C0040213C4801F03DFB7B68072B22D1002267
:10055C000121384801F035FB00220221354801F019
:10056C0030FB00220421334801F02BFB012208212F
:10057C00304801F026FB012210212E4801F021FB0E
:10058C00012220212B4801F01CFB0122402129488B
:10059C0001F017FB7B68082B22D100220121254892
:1005AC0001F00FFB00220221224801F00AFB00227D
:1005BC000421204801F005FB002208211D4801F010
:1005CC0000FB002210211B4801F0FBFA0022202125
:1005DC00184801F0F6FA00224021164801F0F1FA11
:1005EC007B68092B22D100220121124801F0E9FA83
:1005FC00002202210F4801F0E4FA002204210D48E8
:10060C0001F0DFFA002208210A4801F0DAFA01228F
:10061C001021084801F0D5FA00222021054801F0EC
:10062C00D0FA00224021034801F0CBFA00BF083772
:10063C00BD4680BD000C014080B582B000AF786033
:10064C007B68032B00F2848001A252F823F000BFD8
:10065C006D060008A9060008E50600082107000839
:10066C0000224FF480713D4801F0ABFA01224FF4A7
:10067C0000713A4801F0A5FA01224FF48061374825
:10068C0001F09FFA01224FF40061344801F099FA0D
:10069C00334B1B681846FFF749FE5AE001224FF412
:1006AC0080712E4801F08DFA00224FF400712B4816
:1006BC0001F087FA01224FF48061284801F081FA99
:1006CC0001224FF40061254801F07BFA244B5B6852
:1006DC001846FFF72BFE3CE001224FF480711F48B7
:1006EC0001F06FFA01224FF400711C4801F069FA15
:1006FC0000224FF48061194801F063FA01224FF493
:10070C000061164801F05DFA154B9B681846FFF71F
:10071C000DFE1EE001224FF48071104801F051FAD9
:10072C0001224FF400710D4801F04BFA01224FF4F5
:10073C0080610A4801F045FA00224FF40061074835
:10074C0001F03FFA064BDB681846FFF7EFFD00E0BF
:10075C0000BF00BF0837BD4680BD00BF0008014088
:10076C001801002080B483B000AF78607B68163B22
:10077C00032B00F29E8001A252F823F09907000887
:10078C00FF0700083F0800087F0800084C4B1B6857
:10079C004C4A82FB03129210DB17D31A4A4A13609D
:1007AC00474B1968474B83FB01239A10CB17D21A7E
:1007BC0013469B0013445B00CA1A434B5A60434BCD
:1007CC001B68404A82FB03129210DB17D31A3E4A75
:1007DC0093603E4B19683B4B83FB01239A10CB175C
:1007EC00D21A13469B0013445B00CA1A364BDA60CC
:1007FC0060E0374B1B68334A82FB03129210DB1705
:10080C00D31A314A1360324B19682E4B83FB0123E8
:10081C009A10CB17D21A13469B0013445B00CA1ACA
:10082C00294B5A60284B00229A60274B0222DA602F
:10083C0040E0274B1B68234A82FB03129210DB1704
:10084C00D31A214A1360224B19681E4B83FB0123D8
:10085C009A10CB17D21A13469B0013445B00CA1A8A
:10086C00194B5A60184B00229A60174B0322DA601E
:10087C0020E0174B1B68134A82FB03129210DB1704
:10088C00D31A114A1360124B19680E4B83FB0123C8
:10089C009A10CB17D21A13469B0013445B00CA1A4A
:1008AC00094B5A60084B00229A60074B0422DA600D
:1008BC0000E000BF00BF0C37BD4680BC704700BFD6
:1008CC0014000020676666661801002018000020DE
:1008DC002C01002080B500AF934B1B68162B40F009
:1008EC001981924B1A68924B1B681A44914B1B68E6
:1008FC009A4209D08F4B05221A608C4B02221A6047
:10090C008B4B03221A600EE18B4B1B68013B052BB2
:10091C007BD801A252F823F03D09000857090008C2
:10092C00170A0008D7090008170A000897090008D9
:10093C00814B02221A607F4B1B68804A13607A4BF2
:10094C001B681846FFF70EFF66E0012218217C4851
:10095C0001F037F900220421794801F032F9724B89
:10096C001B681846FFF7FEFE744B1B68013B734A6D
:10097C001360724B1B68002B49DC6F4B06221A600C
:10098C006B4B1B686D4A136041E001220C216C48D3
:10099C0001F017F900221021694801F012F9624B9D
:1009AC001B681846FFF7DEFE644B1B68013B634A6D
:1009BC001360624B1B68002B2BDC5F4B04221A600C
:1009CC005A4B1B685D4A136023E0012214215C48DA
:1009DC0001F0F7F800220821594801F0F2F8524BC7
:1009EC001B681846FFF7BEFE544B1B68013B534A6D
:1009FC001360524B1B68002B0DDC4F4B02221A600C
:100A0C004C4B1B684D4A136005E000BF04E000BF6F
:100A1C0002E000BF00E000BF4A4B1B68013B062B05
:100A2C007AD801A252F823F0510A0008250B0008CD
:100A3C00610A0008250B0008E10A0008250B0008D4
:100A4C00A10A00083F4B07221A60394B1B683E4A2B
:100A5C00136068E00122C021394801F0B2F800228D
:100A6C002021374801F0ADF82F4B1B681846FFF7D3
:100A7C0079FE354B1B68013B334A1360324B1B68C4
:100A8C00002B4BDC2F4B07221A60294B1B682E4A7C
:100A9C00136043E001226021294801F092F8002202
:100AAC008021274801F08DF81F4B1B681846FFF773
:100ABC0059FE254B1B68013B234A1360224B1B68D4
:100ACC00002B2DDC1F4B05221A60184B1B681E4A8D
:100ADC00136025E00122A021194801F072F80022D0
:100AEC004021174801F06DF80F4B1B681846FFF7B3
:100AFC0039FE154B1B68013B134A1360124B1B68E4
:100B0C00002B0FDC0F4B03221A600A4B1B680E4A9A
:100B1C00136007E000BF06E000BF04E000BF02E086
:100B2C0000BF00E000BF80BD0000002010000020CE
:100B3C000C000020080000202000002014000020E1
:100B4C0000080140240000201800002080B500AFF0
:100B5C00084B1B68032B02DD064B00221A60054B69
:100B6C001B685A1C03490A601846FFF765FD00BF55
:100B7C0080BD00BF1C00002080B500AF294B1B6856
:100B8C00192B34D0192B49DC172B02D0182B17D06A
:100B9C0044E00120FFF700FB0346002B0AD0224B58
:100BAC001B68622B03DC204B1B68013300E0012324
:100BBC001D4A13601B4B1B681846FFF7D3FD2EE034
:100BCC000120FFF7E9FA0346002B0AD0164B1B68ED
:100BDC00622B03DC144B1B68013300E00123124A27
:100BEC001360104B1B681846FFF7BCFD17E0012083
:100BFC00FFF7D2FA0346002B0AD00B4B1B68622B73
:100C0C0003DC094B1B68013300E00123064A136027
:100C1C00044B1B681846FFF7A5FD00E000BF00BFA2
:100C2C0080BD00BF000000202C01002080B500AF6B
:100C3C000E4B1B68192B10D0192B13DC172B02D061
:100C4C00182B05D00EE02421094800F0D2FF0AE051
:100C5C004821074800F0CDFF05E09021044800F042
:100C6C00C8FF00E000BF00BF80BD00BF0000002037
:100C7C000008014080B500AF774B1B68013B182B77
:100C8C0000F2DE8001A252F823F000BFFD0C000838
:100C9C004D0E00084D0E00084D0E00084D0E0008BC
:100CAC004D0E00084D0E00084D0E00084D0E0008AC
:100CBC004D0E00084D0E00084D0E00084D0E00089C
:100CCC004D0E00084D0E00084D0E00084D0E00088C
:100CDC004D0E00084D0E00084D0E00084D0E00087C
:100CEC00230D00084D0D0008B50D00080B0E000873
:100CFC000122FC21594800F064FF574B16221A6060
:100D0C00574B4FF0FF321A60564B01221A60564B6C
:100D1C0001221A609DE00020FFF73EFA0346002BEB
:100D2C0000F090804C4B17221A60504B1B68504AB5
:100D3C001360504B01221A604F4B01221A6081E064
:100D4C004D4B1B68012B10D10122FC21434800F0B4
:100D5C0038FF40F20B21032000F044FBED2104206E
:100D6C0000F040FB444B00221A600020FFF714FAFD
:100D7C000346002B0DD0384B18221A603F4B1B68D2
:100D8C003B4A13603C4B01221A603A4B01221A6019
:100D9C005AE00220FFF700FA0346002B54D0344BE4
:100DAC001B68324A13604FE0334B1B68012B07D191
:100DBC000122FC21294800F004FF2F4B00221A606D
:100DCC000020FFF7E9F90346002B0DD0224B192226
:100DDC001A602B4B1B68264A1360264B01221A60A3
:100DEC00254B01221A6031E00220FFF7D5F90346AA
:100DFC00002B2BD01E4B1B68204A136026E01E4B89
:100E0C001B68012B07D10122FC21144800F0D9FEEC
:100E1C00194B00221A600020FFF7BEF90346002B85
:100E2C0003D00D4B01221A6012E00220FFF7B4F937
:100E3C000346002B0CD00E4B1B68114A136007E0C5
:100E4C0000BF06E000BF04E000BF02E000BF00E00E
:100E5C0000BF00BF80BD00BF0000002000080140A3
:100E6C001C0000202000002024000020080000208E
:100E7C002C0100200400002028010020100000207C
:100E8C000C00002080B500AF00F09AFB00F038F8A1
:100E9C0000F0BEF800F070F8134801F0EFFA00F023
:100EAC004FFB00F02FF90122FC21104800F089FEC5
:100EBC000A2200210E4800F0F7F9FA22EF210D4822
:100ECC0000F0F2F94FF47A7200210B4800F0ECF9C3
:100EDC0040F2E5320221094800F0E6F900F09AF9F7
:100EEC00FFF74AFEFAE700BFA80100200008014006
:100EFC00810C0008590B0008E1080008390C0008A7
:100F0C0080B590B000AF07F11803282200211846D5
:100F1C0001F064FE3B1D00221A605A609A60DA6090
:100F2C001A610223BB610123BB621023FB62002305
:100F3C007B6307F11803184600F074FE0346002B80
:100F4C0001D000F0DAF80F237B600023BB60002394
:100F5C00FB6000233B6100237B613B1D0021184695
:100F6C0001F0E0F80346002B01D000F0C6F800BFFA
:100F7C004037BD4680BD000080B586B000AF07F19C
:100F8C00080300221A605A609A60DA603B4600221D
:100F9C001A605A601D4B4FF080421A601B4B09229D
:100FAC005A601A4B00229A60184B41F63F72DA6075
:100FBC00164B00221A61154B00229A61134801F05E
:100FCC000DFA0346002B01D000F097F84FF4805334
:100FDC00BB6007F1080319460C4801F08BFB034674
:100FEC00002B01D000F089F800233B6000237B60CC
:100FFC003B461946054801F063FD0346002B01D022
:10100C0000F07BF800BF1837BD4680BDA80100205A
:10101C0080B586B000AF07F1080300221A605A6051
:10102C009A60DA60294B9B69284A43F00403936168
:10103C00264B9B6903F004037B607B68234B9B6905
:10104C00224A43F008039361204B9B6903F0080389
:10105C003B603B68002240F6FE711D4800F0B1FD7C
:10106C00002241F67F711B4800F0ABFD40F6FE7389
:10107C00BB600123FB6000233B6102237B6107F112
:10108C0008031946124800F00BFC41F67F73BB6055
:10109C000123FB6000233B6102237B6107F1080302
:1010AC0019460C4800F0FCFB4FF46043BB60002376
:1010BC00FB6001233B6107F108031946044800F06B
:1010CC00EFFB00BF1837BD4680BD00BF00100240CB
:1010DC0000080140000C014080B582B000AF786080
:1010EC007B681B68B3F1804F03D100F025F8FFF744
:1010FC006DF800BF0837BD4680BD80B400AF72B636
:10110C0000BFFEE780B582B000AF0023FB7106E0A4
:10111C00FB79184600F024F9FB790133FB71FB795C
:10112C00272BF5D9034B00221A7000BF0837BD4698
:10113C0080BD00BF1005002080B483B000AF002339
:10114C00FB715BE0FA79324913469B0013449B0018
:10115C000B441B68002B4ED0FA792D4913469B008B
:10116C0013449B000B4404331B68002B31D1FA79D8
:10117C00274913469B0013449B000B440C331B78EC
:10118C000133D8B2224913469B0013449B000B44F5
:10119C000C3302461A70FA791D4913469B0013440E
:1011AC009B000B4408331B68002B24D0F979FA7987
:1011BC0017480B469B000B449B00034408331968EB
:1011CC00134813469B0013449B00034404331960DB
:1011DC0011E0FA790E4913469B0013449B000B4413
:1011EC0004331B68591E0A4813469B0013449B008A
:1011FC00034404331960FB790133FB71FB79272B12
:10120C00A0D900BF00BF0C37BD4680BC704700BFE3
:10121C00F001002080B582B000AF0023FB7139E0F3
:10122C00FA79204913469B0013449B000B440C3362
:10123C001B78002B2BD0FA791A4913469B001344C8
:10124C009B000B441B689847FA79164913469B0080
:10125C0013449B000B440C331B78013BD8B211494F
:10126C0013469B0013449B000B440C3302461A702C
:10127C00FA790C4913469B0013449B000B4408332A
:10128C001B68002B03D1FB79184600F069F8FB7939
:10129C000133FB71FB79272BC2D900BF00BF083784
:1012AC00BD4680BDF001002080B487B000AFF8606F
:1012BC00B9607A600023FB7502E0FB7D0133FB759E
:1012CC00FA7D244913469B0013449B000B441B6876
:1012DC00002B02D0FB7D272BEFD9FB7D282B04D1D3
:1012EC001D4B0A221A7028232FE0FA7D1949134648
:1012FC009B0013449B000B44FA681A60FA7DBB6890
:10130C001649A1FB0313D908124813469B0013443A
:10131C009B00034404331960FA7D7B680F49A1FBE1
:10132C000313D9080B4813469B0013449B0003443A
:10133C0008331960FA7D074913469B0013449B0040
:10134C000B440C3300221A70FB7D18461C37BD462B
:10135C0080BC7047F001002010050020CDCCCCCC17
:10136C0080B485B000AF78601D497A6813469B0045
:10137C0013449B000B441B68002B02D10023FB730E
:10138C0001E00123FB7316497A6813469B00134452
:10139C009B000B4400221A6011497A6813469B008B
:1013AC0013449B000B44043300221A600C497A68E6
:1013BC0013469B0013449B000B44083300221A6015
:1013CC0007497A6813469B0013449B000B440C336B
:1013DC0000221A70FB7B18461437BD4680BC704740
:1013EC00F001002080B483B000AF786039603B68B6
:1013FC00094A82FB03129210DB17D21A07497B6849
:10140C0041F82320064A7B68002142F8231000BFD4
:10141C000C37BD4680BC70476766666614050020B5
:10142C003C05002080B485B000AF154B9B69144A75
:10143C0043F001039361124B9B6903F00103BB6002
:10144C00BB680F4BDB690E4A43F08053D3610C4BE6
:10145C00DB6903F080537B607B680A4B5B68FB6045
:10146C00FB6823F0E063FB60FB6843F08063FB6088
:10147C00044AFB68536000BF1437BD4680BC7047FC
:10148C00001002400000014080B584B000AF7860CD
:10149C007B681B68B3F1804F13D10C4BDB690B4A93
:1014AC0043F00103D361094BDB6903F00103FB60DB
:1014BC00FB68002200211C2000F0BBF91C2000F06E
:1014CC00D4F900BF1037BD4680BD00BF00100240EC
:1014DC0080B400AFFEE780B400AFFEE780B400AF8D
:1014EC00FEE780B400AFFEE780B400AFFEE780B447
:1014FC0000AF00BFBD4680BC704780B400AF00BFDA
:10150C00BD4680BC704780B400AF00BFBD4680BCF8
:10151C00704780B500AF00F099F800BF80BD0000A7
:10152C0080B500AF024800F0F5FF00BF80BD00BFE2
:10153C00A801002080B400AF00BFBD4680BC70473E
:10154C0080B500AF01224FF4D051084800F039FBB0
:10155C0000224FF48071054800F033FB01227F21FB
:10156C00034800F02EFB00BF80BD00BF0008014007
:10157C00000C0140FFF7DEFF0B480C490C4A00231E
:10158C0002E0D458C4500433C4188C42F9D3094A2D
:10159C00094C002301E013600432A242FBD301F09A
:1015AC00F9FAFFF76FFC704700000020FC000020E8
:1015BC003C2C0008FC00002068050020FEE7000021
:1015CC0080B500AF084B1B68074A43F0100313604B
:1015DC00032000F023F90F2000F008F8FFF722FF9A
:1015EC000023184680BD00BF0020024080B582B0A9
:1015FC0000AF7860124B1A68124B1B7819464FF4E7
:10160C007A73B3FBF1F3B2FBF3F3184600F03BF93A
:10161C000346002B01D001230EE07B680F2B0AD868
:10162C00002279684FF0FF3000F003F9064A7B681E
:10163C001360002300E0012318460837BD4680BD27
:10164C00F0000020F8000020F400002080B400AF6F
:10165C00054B1B781A46054B1B681344034A136051
:10166C0000BFBD4680BC7047F80000206405002018
:10167C0080B400AF024B1B681846BD4680BC704757
:10168C006405002080B485B000AF78607B6803F0FF
:10169C000703FB600C4BDB68BB60BA684FF6FF03BB
:1016AC001340BB60FB681A02BB68134343F0BF6373
:1016BC0043F40033BB60044ABB68D36000BF1437EB
:1016CC00BD4680BC704700BF00ED00E080B400AFA9
:1016DC00044BDB681B0A03F007031846BD4680BCAD
:1016EC00704700BF00ED00E080B483B000AF03464C
:1016FC00FB7197F90730002B0BDBFB7903F01F0212
:10170C00064997F907305B09012000FA02F241F80B
:10171C00232000BF0C37BD4680BC704700E100E0C1
:10172C0080B483B000AF03463960FB7197F9073082
:10173C00002B0ADB3B68DAB20C4997F9073012012F
:10174C00D2B20B4483F800230AE03B68DAB20849B2
:10175C00FB7903F00F03043B1201D2B20B441A764F
:10176C0000BF0C37BD4680BC704700BF00E100E0F5
:10177C0000ED00E080B489B000AFF860B9607A6029
:10178C00FB6803F00703FB61FB69C3F10703042B40
:10179C0028BF0423BB61FB690433062B02D9FB6908
:1017AC00033B00E000237B614FF0FF32BB6902FA80
:1017BC0003F3DA43BB681A407B699A404FF0FF3160
:1017CC007B6901FA03F3D9437B680B40134318463A
:1017DC002437BD4680BC704780B582B000AF7860BE
:1017EC007B68013BB3F1807F01D301230FE00A4AF0
:1017FC007B68013B53600F214FF0FF30FFF790FFE8
:10180C00054B00229A60044B07221A6000231846ED
:10181C000837BD4680BD00BF10E000E080B582B047
:10182C0000AF78607868FFF72DFF00BF0837BD4622
:10183C0080BD80B586B000AF0346B9607A60FB739B
:10184C0000237B61FFF742FF78617A68B968786999
:10185C00FFF790FF024697F90F3011461846FFF735
:10186C005FFF00BF1837BD4680BD80B582B000AFAA
:10187C000346FB7197F907301846FFF735FF00BF99
:10188C000837BD4680BD80B582B000AF78607868FF
:10189C00FFF7A2FF034618460837BD4680BD00007F
:1018AC0080B48BB000AF7860396000237B6200237A
:1018BC003B6248E101227B6A02FA03F3FB613B685D
:1018CC001B68FA691340BB61BA69FB699A4240F024
:1018DC0037813B685B68A34A93425ED0A14A93422E
:1018EC0075D8A14A934258D09F4A93426FD89F4AC9
:1018FC00934252D09D4A934269D89D4A93424CD010
:10190C009B4A934263D89B4A934246D0994A93424E
:10191C005DD8122B2AD8122B59D801A252F823F0D9
:10192C00A71900088119000893190008D519000897
:10193C00DB190008DB190008DB190008DB190008AB
:10194C00DB190008DB190008DB190008DB1900089B
:10195C00DB190008DB190008DB190008DB1900088B
:10196C00DB190008891900089D190008824A934266
:10197C0013D02CE03B68DB683B6229E03B68DB68FA
:10198C0004333B6224E03B68DB6808333B621FE0B6
:10199C003B68DB680C333B621AE03B689B68002BAE
:1019AC0002D104233B6213E03B689B68012B05D1F9
:1019BC0008233B627B68FA691A6109E008233B62E1
:1019CC007B68FA695A6103E000233B6200E000BFC8
:1019DC00BB69FF2B01D87B6801E07B6804337B611A
:1019EC00BB69FF2B02D87B6A9B0002E07B6A083B39
:1019FC009B003B617B691A680F213B6901FA03F379
:101A0C00DB431A40396A3B6901FA03F31A437B69D9
:101A1C001A603B685B6803F08053002B00F09080E9
:101A2C00564B9B69554A43F001039361534B9B6999
:101A3C0003F00103BB60BB68514A7B6A9B0802330D
:101A4C0052F82330FB607B6A03F003039B000F22E8
:101A5C0002FA03F3DB43FA681340FB607B68494AE4
:101A6C0093420DD07B68484A934207D07B68474A23
:101A7C00934201D1022304E0032302E0012300E09E
:101A8C0000237A6A02F0030292009340FA6813432F
:101A9C00FB603B497B6A9B080233FA6841F82320C0
:101AAC003B685B6803F48013002B06D0384B9A68B4
:101ABC003749BB6913438B6006E0354B9A68BB69A9
:101ACC00DB43334913408B603B685B6803F40013C2
:101ADC00002B06D02E4BDA682D49BB691343CB6023
:101AEC0006E02B4BDA68BB69DB4329491340CB601A
:101AFC003B685B6803F40033002B06D0244B5A6818
:101B0C002349BB6913434B6006E0214B5A68BB6900
:101B1C00DB431F4913404B603B685B6803F4803325
:101B2C00002B06D01A4B1A681949BB6913430B607A
:101B3C0006E0174B1A68BB69DB43154913400B6071
:101B4C007B6A01337B623B681A687B6A22FA03F377
:101B5C00002B7FF4AFAE00BF00BF2C37BD4680BC5E
:101B6C00704700BF0000321000003110000022103E
:101B7C000000211000001210000011100010024093
:101B8C000000014000080140000C01400010014021
:101B9C000004014080B485B000AF78600B467B80B8
:101BAC007B689A687B881340002B02D00123FB735F
:101BBC0001E00023FB73FB7B18461437BD4680BC49
:101BCC00704780B483B000AF78600B467B801346BF
:101BDC007B707B78002B03D07A887B681A6103E0DA
:101BEC007B881A047B681A6100BF0C37BD4680BC29
:101BFC00704780B485B000AF78600B467B807B6803
:101C0C00DB68FB607A88FB6813401A04FB68D943D5
:101C1C007B880B401A437B681A6100BF1437BD46A2
:101C2C0080BC704780B586B000AF78607B68002BB5
:101C3C0001D101236CE27B681B6803F00103002BCC
:101C4C0000F08780924B5B6803F00C03042B0CD0E4
:101C5C008F4B5B6803F00C03082B12D18C4B5B6829
:101C6C0003F48033B3F5803F0BD1894B1B6803F42D
:101C7C000033002B6CD07B685B68002B68D1012390
:101C8C0046E27B685B68B3F5803F06D1804B1B68EE
:101C9C007F4A43F4803313602EE07B685B68002B33
:101CAC000CD17B4B1B687A4A23F480331360784B3E
:101CBC001B68774A23F4802313601DE07B685B6804
:101CCC00B3F5A02F0CD1724B1B68714A43F48023DF
:101CDC0013606F4B1B686E4A43F4803313600BE048
:101CEC006B4B1B686A4A23F480331360684B1B6888
:101CFC00674A23F4802313607B685B68002B13D046
:101D0C00FFF7B6FC386108E0FFF7B2FC02463B690E
:101D1C00D31A642B01D90323FAE15D4B1B6803F43E
:101D2C000033002BF0D014E0FFF7A2FC386108E080
:101D3C00FFF79EFC02463B69D31A642B01D903239F
:101D4C00E6E1534B1B6803F40033002BF0D100E0A9
:101D5C0000BF7B681B6803F00203002B63D04C4B65
:101D6C005B6803F00C03002B0BD0494B5B6803F052
:101D7C000C03082B1CD1464B5B6803F48033002BFF
:101D8C0016D1434B1B6803F00203002B05D07B6874
:101D9C001B69012B01D00123BAE13D4B1B6823F0D9
:101DAC00F8027B685B69DB00394913430B603AE04E
:101DBC007B681B69002B20D0364B01221A60FFF781
:101DCC0057FC386108E0FFF753FC02463B69D31A15
:101DDC00022B01D903239BE12D4B1B6803F002035B
:101DEC00002BF0D02A4B1B6823F0F8027B685B6950
:101DFC00DB00274913430B6015E0264B00221A60C9
:101E0C00FFF736FC386108E0FFF732FC02463B690D
:101E1C00D31A022B01D903237AE11D4B1B6803F063
:101E2C000203002BF0D17B681B6803F00803002B26
:101E3C003AD07B689B69002B19D0174B01221A6092
:101E4C00FFF716FC386108E0FFF712FC02463B690D
:101E5C00D31A022B01D903235AE10D4B5B6A03F011
:101E6C000203002BF0D0012000F09AFA1CE00A4B80
:101E7C0000221A60FFF7FCFB38610FE0FFF7F8FB5C
:101E8C0002463B69D31A022B08D9032340E100BF59
:101E9C000010024000004242800442429E4B5B6AAA
:101EAC0003F00203002BE9D17B681B6803F00403E9
:101EBC00002B00F0A6800023FB75974BDB6903F029
:101ECC008053002B0DD1944BDB69934A43F0805324
:101EDC00D361914BDB6903F08053BB60BB6801237A
:101EEC00FB758E4B1B6803F48073002B18D18B4B46
:101EFC001B688A4A43F480731360FFF7B9FB38619F
:101F0C0008E0FFF7B5FB02463B69D31A642B01D9F5
:101F1C000323FDE0814B1B6803F48073002BF0D08E
:101F2C007B68DB68012B06D17B4B1B6A7A4A43F03A
:101F3C00010313622DE07B68DB68002B0CD1764B20
:101F4C001B6A754A23F001031362734B1B6A724AB6
:101F5C0023F0040313621CE07B68DB68052B0CD1B7
:101F6C006D4B1B6A6C4A43F0040313626A4B1B6A89
:101F7C00694A43F0010313620BE0674B1B6A664A24
:101F8C0023F001031362644B1B6A634A23F00403BE
:101F9C0013627B68DB68002B15D0FFF769FB386197
:101FAC000AE0FFF765FB02463B69D31A41F288321F
:101FBC00934201D90323ABE0574B1B6A03F0020396
:101FCC00002BEED014E0FFF753FB38610AE0FFF76B
:101FDC004FFB02463B69D31A41F28832934201D936
:101FEC00032395E04C4B1B6A03F00203002BEED14C
:101FFC00FB7D012B05D1484BDB69474A23F080530D
:10200C00D3617B68DB69002B00F08180424B5B68FD
:10201C0003F00C03082B61D07B68DB69022B46D1E3
:10202C003F4B00221A60FFF723FB386108E0FFF7F3
:10203C001FFB02463B69D31A022B01D9032367E02D
:10204C00354B1B6803F00073002BF0D17B681B6AC7
:10205C00B3F5803F08D1304B5B6823F400327B68CA
:10206C009B682D4913434B602B4B5B6823F4741214
:10207C007B68196A7B685B6A0B43274913434B6087
:10208C00274B01221A60FFF7F3FA386108E0FFF7DB
:10209C00EFFA02463B69D31A022B01D9032337E02E
:1020AC001D4B1B6803F00073002BF0D02FE01C4B72
:1020BC0000221A60FFF7DCFA386108E0FFF7D8FA63
:1020CC0002463B69D31A022B01D9032320E0124BA1
:1020DC001B6803F00073002BF0D118E07B68DB6900
:1020EC00012B01D1012313E00B4B5B68FB60FB68F8
:1020FC0003F480327B681B6A9A4206D1FB6803F4B6
:10210C0070127B685B6A9A4201D0012300E00023C5
:10211C0018461837BD4680BD0010024000700040C4
:10212C006000424280B584B000AF786039607B6853
:10213C00002B01D10123D0E06A4B1B6803F007038D
:10214C003A689A4210D9674B1B6823F0070265491D
:10215C003B6813430B60634B1B6803F007033A683F
:10216C009A4201D00123B8E07B681B6803F002039C
:10217C00002B20D07B681B6803F00403002B05D0D8
:10218C00594B5B68584A43F4E06353607B681B68A7
:10219C0003F00803002B05D0534B5B68524A43F401
:1021AC0060535360504B5B6823F0F0027B689B6874
:1021BC004D4913434B607B681B6803F00103002BF4
:1021CC0040D07B685B68012B07D1474B1B6803F43D
:1021DC000033002B15D101237FE07B685B68022B59
:1021EC0007D1414B1B6803F00073002B09D101236D
:1021FC0073E03D4B1B6803F00203002B01D101235C
:10220C006BE0394B5B6823F003027B685B683649F3
:10221C0013434B60FFF72CFAF8600AE0FFF728FA3B
:10222C000246FB68D31A41F28832934201D9032348
:10223C0053E02D4B5B6803F00C027B685B689B00E2
:10224C009A42EBD1274B1B6803F007033A689A427A
:10225C0010D2244B1B6823F0070222493B6813431E
:10226C000B60204B1B6803F007033A689A4201D0BD
:10227C00012332E07B681B6803F00403002B08D0B9
:10228C00194B5B6823F4E0627B68DB6816491343E7
:10229C004B607B681B6803F00803002B09D0124BC2
:1022AC005B6823F460527B681B69DB000E491343A7
:1022BC004B6000F021F802460B4B5B681B0903F0E6
:1022CC000F030A49CB5C22FA03F3094A1360094B4A
:1022DC001B681846FFF78AF9002318461037BD46CD
:1022EC0080BD00BF0020024000100240102C0008EE
:1022FC00F0000020F400002080B487B000AF002371
:10230C00FB600023BB6000237B6100237B60002308
:10231C003B611E4B5B68FB60FB6803F00C03042BFA
:10232C0002D0082B03D027E0194B3B6127E0FB6858
:10233C009B0C03F00F03174AD35C7B60FB6803F420
:10234C008033002B10D0114B5B685B0C03F0010346
:10235C00114AD35CBB607B680D4A02FB03F2BB687D
:10236C00B2FBF3F37B6104E07B680C4A02FB03F3E2
:10237C007B617B693B6102E0054B3B6100BF3B69C4
:10238C0018461C37BD4680BC704700BF0010024089
:10239C0000127A00202C0008302C000800093D00A7
:1023AC0080B485B000AF78600A4B1B680A4AA2FB68
:1023BC0003235B0A7A6802FB03F3FB6000BFFB6834
:1023CC005A1EFA60002BF9D100BF00BF1437BD466E
:1023DC0080BC7047F0000020D34D621080B582B0F5
:1023EC0000AF78607B68002B01D1012341E07B6852
:1023FC0093F83D30DBB2002B06D17B68002283F8CA
:10240C003C207868FFF740F87B68022283F83D2077
:10241C007B681A687B6804331946104600F056FA3C
:10242C007B68012283F846207B68012283F83E20DA
:10243C007B68012283F83F207B68012283F84020CF
:10244C007B68012283F841207B68012283F84220BB
:10245C007B68012283F843207B68012283F84420A7
:10246C007B68012283F845207B68012283F83D209C
:10247C00002318460837BD4680BD000080B485B0E7
:10248C0000AF78607B6893F83D30DBB2012B01D054
:10249C00012335E07B68022283F83D207B681B68B2
:1024AC00DA687B681B6842F00102DA607B681B68A3
:1024BC00164A934209D07B681B68B3F1804F04D055
:1024CC007B681B68124A934211D17B681B689B681E
:1024DC0003F00703FB60FB68062B10D07B681B68BE
:1024EC001A687B681B6842F001021A6007E07B687F
:1024FC001B681A687B681B6842F001021A60002393
:10250C0018461437BD4680BC704700BF002C0140F4
:10251C000004004080B584B000AF78607B681B6815
:10252C00DB68FB607B681B681B69BB60BB6803F0E6
:10253C000203002B20D0FB6803F00203002B1BD0FE
:10254C007B681B686FF002021A617B6801221A77A4
:10255C007B681B689B6903F00303002B03D078682E
:10256C0000F098F905E0786800F08BF9786800F0D5
:10257C009AF97B6800221A77BB6803F00403002BDE
:10258C0020D0FB6803F00403002B1BD07B681B6876
:10259C006FF004021A617B6802221A777B681B6851
:1025AC009B6903F44073002B03D0786800F072F938
:1025BC0005E0786800F065F9786800F074F97B68DC
:1025CC0000221A77BB6803F00803002B20D0FB68AD
:1025DC0003F00803002B1BD07B681B686FF008020C
:1025EC001A617B6804221A777B681B68DB6903F02D
:1025FC000303002B03D0786800F04CF905E07868F1
:10260C0000F03FF9786800F04EF97B6800221A77E9
:10261C00BB6803F01003002B20D0FB6803F0100301
:10262C00002B1BD07B681B686FF010021A617B6853
:10263C0008221A777B681B68DB6903F44073002B54
:10264C0003D0786800F026F905E0786800F019F9F5
:10265C00786800F028F97B6800221A77BB6803F0D1
:10266C000103002B0CD0FB6803F00103002B07D0F7
:10267C007B681B686FF001021A617868FEF72CFD0D
:10268C00BB6803F08003002B0CD0FB6803F08003C5
:10269C00002B07D07B681B686FF080021A6178688A
:1026AC0000F06FFABB6803F04003002B0CD0FB6802
:1026BC0003F04003002B07D07B681B686FF04002CF
:1026CC001A61786800F0F8F8BB6803F02003002B5F
:1026DC000CD0FB6803F02003002B07D07B681B6831
:1026EC006FF020021A61786800F042FA00BF1037D0
:1026FC00BD4680BD80B584B000AF786039600023E2
:10270C00FB737B6893F83C30012B01D10223B4E0BE
:10271C007B68012283F83C207B68022283F83D20F1
:10272C007B681B689B68BB60BB6823F07703BB604E
:10273C00BB6823F47F43BB607B681B68BA689A60F4
:10274C003B681B68B3F5005F3ED0B3F5005F00F249
:10275C008780B3F5805F00F08680B3F5805F7FD80B
:10276C00702B1AD0702B7BD8602B50D0602B77D865
:10277C00502B3CD0502B73D8402B58D0402B6FD8BB
:10278C00302B64D0302B6BD8202B60D0202B67D80B
:10279C00002B5CD0102B5AD062E07B6818683B6829
:1027AC0099683B685A683B68DB6800F06AF97B689B
:1027BC001B689B68BB60BB6843F07703BB607B689E
:1027CC001B68BA689A604FE07B6818683B68996828
:1027DC003B685A683B68DB6800F053F97B681B6800
:1027EC009A687B681B6842F480429A603CE07B6884
:1027FC0018683B6859683B68DB681A4600F0CAF8F1
:10280C007B681B685021184600F021F92CE07B688E
:10281C0018683B6859683B68DB681A4600F0E8F8B2
:10282C007B681B686021184600F011F91CE07B687E
:10283C0018683B6859683B68DB681A4600F0AAF8D0
:10284C007B681B684021184600F001F90CE07B689E
:10285C001A683B681B681946104600F0F8F803E04C
:10286C000123FB7300E000BF7B68012283F83D204D
:10287C007B68002283F83C20FB7B18461037BD4652
:10288C0080BD80B483B000AF786000BF0C37BD460C
:10289C0080BC704780B483B000AF786000BF0C3749
:1028AC00BD4680BC704780B483B000AF786000BF79
:1028BC000C37BD4680BC704780B483B000AF7860E5
:1028CC0000BF0C37BD4680BC7047000080B485B09B
:1028DC0000AF786039607B681B68FB607B682B4AB3
:1028EC00934207D07B68B3F1804F03D07B68284AB2
:1028FC00934208D1FB6823F07003FB603B685B6874
:10290C00FA681343FB607B68204A934207D07B68CC
:10291C00B3F1804F03D07B681D4A934208D1FB680A
:10292C0023F44073FB603B68DB68FA681343FB607D
:10293C00FB6823F080023B685B691343FB607B6898
:10294C00FA681A603B689A687B68DA623B681A68B6
:10295C007B689A627B680D4A934203D13B681A6983
:10296C007B681A637B6801225A617B681B6903F0E0
:10297C000103002B05D07B681B6923F001027B68E7
:10298C001A6100BF1437BD4680BC7047002C014053
:10299C000004004080B487B000AFF860B9607A6082
:1029AC00FB681B6A7B61FB681B6A23F00102FB68F6
:1029BC001A62FB689B693B613B6923F0F0033B6146
:1029CC007B681B013A6913433B617B6923F00A0363
:1029DC007B617A69BB6813437B61FB683A699A61D6
:1029EC00FB687A691A6200BF1C37BD4680BC704711
:1029FC0080B487B000AFF860B9607A60FB681B6A7E
:102A0C007B61FB681B6A23F01002FB681A62FB688F
:102A1C009B693B613B6923F470433B617B681B03FF
:102A2C003A6913433B617B6923F0A0037B61BB686C
:102A3C001B017A6913437B61FB683A699A61FB68F5
:102A4C007A691A6200BF1C37BD4680BC704780B4DF
:102A5C0085B000AF786039607B689B68FB60FB6871
:102A6C0023F07003FB603A68FB68134343F00703E1
:102A7C00FB607B68FA689A6000BF1437BD4680BC67
:102A8C00704780B487B000AFF860B9607A603B6083
:102A9C00FB689B687B617B6923F47F437B613B68AC
:102AAC001A027B681A43BB6813437A6913437B6130
:102ABC00FB687A699A6000BF1C37BD4680BC7047C2
:102ACC0080B485B000AF786039607B6893F83C3097
:102ADC00012B01D1022341E07B68012283F83C20C9
:102AEC007B68022283F83D207B681B685B68FB6077
:102AFC007B681B689B68BB60FB6823F07003FB6002
:102B0C003B681B68FA681343FB607B681B68FA68B8
:102B1C005A607B681B68144A934209D07B681B6817
:102B2C00B3F1804F04D07B681B68104A93420CD1E0
:102B3C00BB6823F08003BB603B685B68BA681343D7
:102B4C00BB607B681B68BA689A607B68012283F85B
:102B5C003D207B68002283F83C2000231846143764
:102B6C00BD4680BC704700BF002C014000040040F3
:102B7C0080B483B000AF786000BF0C37BD4680BC1A
:102B8C00704780B483B000AF786000BF0C37BD468F
:102B9C0080BC704770B500260C4D0D4C641BA41006
:102BAC00A64209D100F022F800260A4D0A4C641BFB
:102BBC00A410A64205D170BD55F8043B98470136C8
:102BCC00EEE755F8043B98470136F2E7342C000841
:102BDC00342C0008342C0008382C0008034602441E
:102BEC00934200D1704703F8011BF9E7F8B500BF19
:102BFC00F8BC08BC9E467047F8B500BFF8BC08BCD2
:042C0C009E46704729
:102C1000000000000000000001020304060708098C
:102C200002030405060708090A0B0C0D0E0F10100D
:042C3000010200009D
:042C34003101000862
:042C38000D01000882
:102C3C00010000000100000005000000030000007E
:102C4C00020000000500000003000000FFFFFFFF72
:102C5C000100000001000000010000000000000065
:102C6C000000000000000000000000000000000058
:102C7C000000000000000000000000000000000048
:102C8C000100000000000000000000000000000037
:102C9C000000000000000000000000000000000028
:102CAC000000000000000000010000000000000017
:102CBC000000000000000000000000000000000008
:102CCC0000000000000000000000000000000000F8
:102CDC0001000000000000000000000000000000E7
:102CEC0000000000000000000000000000000000D8
:102CFC000000000000000000C80000000000000000
:102D0C0000000000000000000000000000000000B7
:102D1C0000000000000000000000000000000000A7
:0C2D2C0000127A001000000001000000FE
:040000050800158159
:00000001FF
